{
  "contractName": "RockPaperScissors",
  "abi": [
    {
      "constant": true,
      "inputs": [],
      "name": "playerCount",
      "outputs": [
        {
          "name": "",
          "type": "uint256"
        }
      ],
      "payable": false,
      "stateMutability": "view",
      "type": "function",
      "signature": "0x302bcc57"
    },
    {
      "constant": true,
      "inputs": [],
      "name": "itemCount",
      "outputs": [
        {
          "name": "",
          "type": "uint256"
        }
      ],
      "payable": false,
      "stateMutability": "view",
      "type": "function",
      "signature": "0x6bfb0d01"
    },
    {
      "constant": true,
      "inputs": [
        {
          "name": "",
          "type": "uint256"
        }
      ],
      "name": "items",
      "outputs": [
        {
          "name": "num",
          "type": "uint256"
        },
        {
          "name": "name",
          "type": "string"
        }
      ],
      "payable": false,
      "stateMutability": "view",
      "type": "function",
      "signature": "0xbfb231d2"
    },
    {
      "constant": true,
      "inputs": [],
      "name": "randomNumber",
      "outputs": [
        {
          "name": "",
          "type": "uint256"
        }
      ],
      "payable": false,
      "stateMutability": "view",
      "type": "function",
      "signature": "0xccbac9f5"
    },
    {
      "constant": true,
      "inputs": [
        {
          "name": "",
          "type": "uint256"
        }
      ],
      "name": "players",
      "outputs": [
        {
          "name": "name",
          "type": "string"
        },
        {
          "name": "status",
          "type": "string"
        },
        {
          "name": "addr",
          "type": "address"
        },
        {
          "name": "hasAttacked",
          "type": "bool"
        },
        {
          "name": "revealedId",
          "type": "uint256"
        },
        {
          "name": "itemId",
          "type": "uint256"
        }
      ],
      "payable": false,
      "stateMutability": "view",
      "type": "function",
      "signature": "0xf71d96cb"
    },
    {
      "inputs": [],
      "payable": false,
      "stateMutability": "nonpayable",
      "type": "constructor",
      "signature": "constructor"
    },
    {
      "anonymous": false,
      "inputs": [],
      "name": "StatusEvent",
      "type": "event",
      "signature": "0x757c2310474f7896e25d3ba1aa02bb3891ccd1434dfdb3fa76354a783ba3dcc3"
    },
    {
      "anonymous": false,
      "inputs": [
        {
          "indexed": false,
          "name": "error",
          "type": "string"
        }
      ],
      "name": "ErrorEvent",
      "type": "event",
      "signature": "0x6222dc10afcca3c8cec10b1b08a9bff096c30eb574a3233be051aa5440fc41bb"
    },
    {
      "constant": false,
      "inputs": [
        {
          "name": "randNum",
          "type": "uint256"
        }
      ],
      "name": "registerPlayer",
      "outputs": [],
      "payable": false,
      "stateMutability": "nonpayable",
      "type": "function",
      "signature": "0x821644e6"
    },
    {
      "constant": false,
      "inputs": [
        {
          "name": "_itemId",
          "type": "uint256"
        }
      ],
      "name": "attack",
      "outputs": [],
      "payable": false,
      "stateMutability": "nonpayable",
      "type": "function",
      "signature": "0x64dd891a"
    },
    {
      "constant": false,
      "inputs": [
        {
          "name": "_itemId",
          "type": "uint256"
        }
      ],
      "name": "revealItem",
      "outputs": [],
      "payable": false,
      "stateMutability": "nonpayable",
      "type": "function",
      "signature": "0x5dd1e48e"
    },
    {
      "constant": true,
      "inputs": [],
      "name": "getData",
      "outputs": [
        {
          "name": "",
          "type": "uint256"
        }
      ],
      "payable": false,
      "stateMutability": "view",
      "type": "function",
      "signature": "0x3bc5de30"
    }
  ],
  "bytecode": "0x60806040526103e860005560016005553480156200001c57600080fd5b506200006c6040805190810160405280600881526020017f506c617965722031000000000000000000000000000000000000000000000000815250620001ae640100000000026401000000009004565b620000bb6040805190810160405280600881526020017f506c617965722032000000000000000000000000000000000000000000000000815250620001ae640100000000026401000000009004565b6200010a6040805190810160405280600481526020017f526f636b0000000000000000000000000000000000000000000000000000000081525062000315640100000000026401000000009004565b620001596040805190810160405280600581526020017f506170657200000000000000000000000000000000000000000000000000000081525062000315640100000000026401000000009004565b620001a86040805190810160405280600781526020017f53636973736f720000000000000000000000000000000000000000000000000081525062000315640100000000026401000000009004565b62000431565b60036000815480929190600101919050555060c0604051908101604052808281526020016040805190810160405280601381526020017f57616974696e6720746f207265676973746572000000000000000000000000008152508152602001600073ffffffffffffffffffffffffffffffffffffffff168152602001600015158152602001600054815260200160005481525060016000600354815260200190815260200160002060008201518160000190805190602001906200027492919062000382565b5060208201518160010190805190602001906200029392919062000382565b5060408201518160020160006101000a81548173ffffffffffffffffffffffffffffffffffffffff021916908373ffffffffffffffffffffffffffffffffffffffff16021790555060608201518160020160146101000a81548160ff0219169083151502179055506080820151816003015560a0820151816004015590505050565b60408051908101604052806004548152602001828152506002600060045481526020019081526020016000206000820151816000015560208201518160010190805190602001906200036992919062000382565b5090505060046000815480929190600101919050555050565b828054600181600116156101000203166002900490600052602060002090601f016020900481019282601f10620003c557805160ff1916838001178555620003f6565b82800160010185558215620003f6579182015b82811115620003f5578251825591602001919060010190620003d8565b5b50905062000405919062000409565b5090565b6200042e91905b808211156200042a57600081600090555060010162000410565b5090565b90565b611a3a80620004416000396000f3fe608060405260043610610099576000357c0100000000000000000000000000000000000000000000000000000000900463ffffffff168063302bcc571461009e5780633bc5de30146100c95780635dd1e48e146100f457806364dd891a1461012f5780636bfb0d011461016a578063821644e614610195578063bfb231d2146101d0578063ccbac9f51461028b578063f71d96cb146102b6575b600080fd5b3480156100aa57600080fd5b506100b3610422565b6040518082815260200191505060405180910390f35b3480156100d557600080fd5b506100de610428565b6040518082815260200191505060405180910390f35b34801561010057600080fd5b5061012d6004803603602081101561011757600080fd5b8101908080359060200190929190505050610432565b005b34801561013b57600080fd5b506101686004803603602081101561015257600080fd5b8101908080359060200190929190505050610771565b005b34801561017657600080fd5b5061017f610bd2565b6040518082815260200191505060405180910390f35b3480156101a157600080fd5b506101ce600480360360208110156101b857600080fd5b8101908080359060200190929190505050610bd8565b005b3480156101dc57600080fd5b50610209600480360360208110156101f357600080fd5b810190808035906020019092919050505061109d565b6040518083815260200180602001828103825283818151815260200191508051906020019080838360005b8381101561024f578082015181840152602081019050610234565b50505050905090810190601f16801561027c5780820380516001836020036101000a031916815260200191505b50935050505060405180910390f35b34801561029757600080fd5b506102a0611159565b6040518082815260200191505060405180910390f35b3480156102c257600080fd5b506102ef600480360360208110156102d957600080fd5b810190808035906020019092919050505061115f565b6040518080602001806020018773ffffffffffffffffffffffffffffffffffffffff1673ffffffffffffffffffffffffffffffffffffffff16815260200186151515158152602001858152602001848152602001838103835289818151815260200191508051906020019080838360005b8381101561037b578082015181840152602081019050610360565b50505050905090810190601f1680156103a85780820380516001836020036101000a031916815260200191505b50838103825288818151815260200191508051906020019080838360005b838110156103e15780820151818401526020810190506103c6565b50505050905090810190601f16801561040e5780820380516001836020036101000a031916815260200191505b509850505050505050505060405180910390f35b60035481565b6000600554905090565b60008090503373ffffffffffffffffffffffffffffffffffffffff16600160006001815260200190815260200160002060020160009054906101000a900473ffffffffffffffffffffffffffffffffffffffff1673ffffffffffffffffffffffffffffffffffffffff1614156104ab57600190506105b4565b3373ffffffffffffffffffffffffffffffffffffffff16600160006002815260200190815260200160002060020160009054906101000a900473ffffffffffffffffffffffffffffffffffffffff1673ffffffffffffffffffffffffffffffffffffffff16141561051f57600290506105b3565b7f6222dc10afcca3c8cec10b1b08a9bff096c30eb574a3233be051aa5440fc41bb6040518080602001828103825260298152602001807f4572726f723a204f6e6c79207265676973746572656420506c6179657273206381526020017f616e2061747461636b000000000000000000000000000000000000000000000081525060400191505060405180910390a15061076e565b5b60005460016000600181526020019081526020016000206004015414806105f35750600054600160006002815260200190815260200160002060040154145b1561068c577f6222dc10afcca3c8cec10b1b08a9bff096c30eb574a3233be051aa5440fc41bb6040518080602001828103825260248152602001807f4572726f723a205761697420666f72206f7468657220706c6179657220746f2081526020017f766f74650000000000000000000000000000000000000000000000000000000081525060400191505060405180910390a15061076e565b8160016000838152602001908152602001600020600301819055506040805190810160405280600d81526020017f52657665616c6564206974656d00000000000000000000000000000000000000815250600160008381526020019081526020016000206001019080519060200190610706929190611969565b506000816003039050600054600160008381526020019081526020016000206003015414151561073f576107386112f8565b505061076e565b7f757c2310474f7896e25d3ba1aa02bb3891ccd1434dfdb3fa76354a783ba3dcc360405160405180910390a150505b50565b60008090503373ffffffffffffffffffffffffffffffffffffffff16600160006001815260200190815260200160002060020160009054906101000a900473ffffffffffffffffffffffffffffffffffffffff1673ffffffffffffffffffffffffffffffffffffffff1614156107ea57600190506108f3565b3373ffffffffffffffffffffffffffffffffffffffff16600160006002815260200190815260200160002060020160009054906101000a900473ffffffffffffffffffffffffffffffffffffffff1673ffffffffffffffffffffffffffffffffffffffff16141561085e57600290506108f2565b7f6222dc10afcca3c8cec10b1b08a9bff096c30eb574a3233be051aa5440fc41bb6040518080602001828103825260298152602001807f4572726f723a204f6e6c79207265676973746572656420506c6179657273206381526020017f616e2061747461636b000000000000000000000000000000000000000000000081525060400191505060405180910390a150610bcf565b5b600073ffffffffffffffffffffffffffffffffffffffff16600160006001815260200190815260200160002060020160009054906101000a900473ffffffffffffffffffffffffffffffffffffffff1673ffffffffffffffffffffffffffffffffffffffff1614806109c85750600073ffffffffffffffffffffffffffffffffffffffff16600160006002815260200190815260200160002060020160009054906101000a900473ffffffffffffffffffffffffffffffffffffffff1673ffffffffffffffffffffffffffffffffffffffff16145b15610a61577f6222dc10afcca3c8cec10b1b08a9bff096c30eb574a3233be051aa5440fc41bb6040518080602001828103825260288152602001807f4572726f723a205761697420666f72206f7468657220706c6179657220746f2081526020017f726567697374657200000000000000000000000000000000000000000000000081525060400191505060405180910390a150610bcf565b6001600082815260200190815260200160002060020160149054906101000a900460ff1615610af8577f6222dc10afcca3c8cec10b1b08a9bff096c30eb574a3233be051aa5440fc41bb60405180806020018281038252601d8152602001807f4572726f723a20416c72656164792063686f73656e20616e206974656d00000081525060200191505060405180910390a150610bcf565b816001600083815260200190815260200160002060040181905550600180600083815260200190815260200160002060020160146101000a81548160ff0219169083151502179055506040805190810160405280600b81526020017f43686f73656e206974656d000000000000000000000000000000000000000000815250600160008381526020019081526020016000206001019080519060200190610ba0929190611969565b507f757c2310474f7896e25d3ba1aa02bb3891ccd1434dfdb3fa76354a783ba3dcc360405160405180910390a1505b50565b60045481565b600160006001815260200190815260200160002060020160009054906101000a900473ffffffffffffffffffffffffffffffffffffffff1673ffffffffffffffffffffffffffffffffffffffff163373ffffffffffffffffffffffffffffffffffffffff161480610cab5750600160006002815260200190815260200160002060020160009054906101000a900473ffffffffffffffffffffffffffffffffffffffff1673ffffffffffffffffffffffffffffffffffffffff163373ffffffffffffffffffffffffffffffffffffffff16145b15610d1d577f6222dc10afcca3c8cec10b1b08a9bff096c30eb574a3233be051aa5440fc41bb60405180806020018281038252601e8152602001807f4572726f723a205573657220416c72656164792072656769737465726564000081525060200191505060405180910390a161109a565b600073ffffffffffffffffffffffffffffffffffffffff16600160006001815260200190815260200160002060020160009054906101000a900473ffffffffffffffffffffffffffffffffffffffff1673ffffffffffffffffffffffffffffffffffffffff161415610e455733600160006001815260200190815260200160002060020160006101000a81548173ffffffffffffffffffffffffffffffffffffffff021916908373ffffffffffffffffffffffffffffffffffffffff1602179055506040805190810160405280600a81526020017f526567697374657265640000000000000000000000000000000000000000000081525060016000600181526020019081526020016000206001019080519060200190610e3f929190611969565b50611062565b600073ffffffffffffffffffffffffffffffffffffffff16600160006002815260200190815260200160002060020160009054906101000a900473ffffffffffffffffffffffffffffffffffffffff1673ffffffffffffffffffffffffffffffffffffffff161415610fce5733600160006002815260200190815260200160002060020160006101000a81548173ffffffffffffffffffffffffffffffffffffffff021916908373ffffffffffffffffffffffffffffffffffffffff1602179055506040805190810160405280601181526020017f57616974696e6720746f2063686f6f736500000000000000000000000000000081525060016000600281526020019081526020016000206001019080519060200190610f67929190611969565b506040805190810160405280601181526020017f57616974696e6720746f2063686f6f736500000000000000000000000000000081525060016000600181526020019081526020016000206001019080519060200190610fc8929190611969565b50611061565b7f6222dc10afcca3c8cec10b1b08a9bff096c30eb574a3233be051aa5440fc41bb6040518080602001828103825260228152602001807f4572726f723a204e6f206d6f726520737061636520666f72206e65772075736581526020017f727300000000000000000000000000000000000000000000000000000000000081525060400191505060405180910390a161109a565b5b60055481186005819055507f757c2310474f7896e25d3ba1aa02bb3891ccd1434dfdb3fa76354a783ba3dcc360405160405180910390a15b50565b6002602052806000526040600020600091509050806000015490806001018054600181600116156101000203166002900480601f01602080910402602001604051908101604052809291908181526020018280546001816001161561010002031660029004801561114f5780601f106111245761010080835404028352916020019161114f565b820191906000526020600020905b81548152906001019060200180831161113257829003601f168201915b5050505050905082565b60055481565b6001602052806000526040600020600091509050806000018054600181600116156101000203166002900480601f01602080910402602001604051908101604052809291908181526020018280546001816001161561010002031660029004801561120b5780601f106111e05761010080835404028352916020019161120b565b820191906000526020600020905b8154815290600101906020018083116111ee57829003601f168201915b505050505090806001018054600181600116156101000203166002900480601f0160208091040260200160405190810160405280929190818152602001828054600181600116156101000203166002900480156112a95780601f1061127e576101008083540402835291602001916112a9565b820191906000526020600020905b81548152906001019060200180831161128c57829003601f168201915b5050505050908060020160009054906101000a900473ffffffffffffffffffffffffffffffffffffffff16908060020160149054906101000a900460ff16908060030154908060040154905086565b600554600160006001815260200190815260200160002060030154016040516020018082815260200191505060405160208183030381529060405280519060200120600190046001600060018152602001908152602001600020600401541415156113f0577f6222dc10afcca3c8cec10b1b08a9bff096c30eb574a3233be051aa5440fc41bb60405180806020018281038252602a8152602001807f506c61796572203220776f6e2c20506c6179657220312077726f6e672069746581526020017f6d2072657665616c65640000000000000000000000000000000000000000000081525060400191505060405180910390a1611967565b600554600160006002815260200190815260200160002060030154016040516020018082815260200191505060405160208183030381529060405280519060200120600190046001600060028152602001908152602001600020600401541415156114e8577f6222dc10afcca3c8cec10b1b08a9bff096c30eb574a3233be051aa5440fc41bb60405180806020018281038252602a8152602001807f506c61796572203120776f6e2c20506c6179657220322077726f6e672069746581526020017f6d2072657665616c65640000000000000000000000000000000000000000000081525060400191505060405180910390a1611967565b600060045460016000600181526020019081526020016000206003015481151561150e57fe5b069050600060045460016000600281526020019081526020016000206003015481151561153757fe5b069050600082141561169e5760008114156115b9577f6222dc10afcca3c8cec10b1b08a9bff096c30eb574a3233be051aa5440fc41bb6040518080602001828103825260048152602001807f447261770000000000000000000000000000000000000000000000000000000081525060200191505060405180910390a1611699565b600181141561162f577f6222dc10afcca3c8cec10b1b08a9bff096c30eb574a3233be051aa5440fc41bb60405180806020018281038252600c8152602001807f506c61796572203120576f6e000000000000000000000000000000000000000081525060200191505060405180910390a1611698565b7f6222dc10afcca3c8cec10b1b08a9bff096c30eb574a3233be051aa5440fc41bb60405180806020018281038252600c8152602001807f506c61796572203220576f6e000000000000000000000000000000000000000081525060200191505060405180910390a15b5b611964565b600182141561180257600081141561171d577f6222dc10afcca3c8cec10b1b08a9bff096c30eb574a3233be051aa5440fc41bb60405180806020018281038252600c8152602001807f506c61796572203120576f6e000000000000000000000000000000000000000081525060200191505060405180910390a16117fd565b6001811415611793577f6222dc10afcca3c8cec10b1b08a9bff096c30eb574a3233be051aa5440fc41bb6040518080602001828103825260048152602001807f447261770000000000000000000000000000000000000000000000000000000081525060200191505060405180910390a16117fc565b7f6222dc10afcca3c8cec10b1b08a9bff096c30eb574a3233be051aa5440fc41bb60405180806020018281038252600c8152602001807f506c61796572203220576f6e000000000000000000000000000000000000000081525060200191505060405180910390a15b5b611963565b6002821415611962576000811415611881577f6222dc10afcca3c8cec10b1b08a9bff096c30eb574a3233be051aa5440fc41bb60405180806020018281038252600c8152602001807f506c61796572203220576f6e000000000000000000000000000000000000000081525060200191505060405180910390a1611961565b60018114156118f7577f6222dc10afcca3c8cec10b1b08a9bff096c30eb574a3233be051aa5440fc41bb60405180806020018281038252600c8152602001807f506c61796572203120576f6e000000000000000000000000000000000000000081525060200191505060405180910390a1611960565b7f6222dc10afcca3c8cec10b1b08a9bff096c30eb574a3233be051aa5440fc41bb6040518080602001828103825260048152602001807f447261770000000000000000000000000000000000000000000000000000000081525060200191505060405180910390a15b5b5b5b5b50505b565b828054600181600116156101000203166002900490600052602060002090601f016020900481019282601f106119aa57805160ff19168380011785556119d8565b828001600101855582156119d8579182015b828111156119d75782518255916020019190600101906119bc565b5b5090506119e591906119e9565b5090565b611a0b91905b80821115611a075760008160009055506001016119ef565b5090565b9056fea165627a7a72305820d05cd3514e0441568189f3ee0104229694a33b430fbf7745f96b22b10b50edc40029",
  "source": "pragma solidity ^0.5.0;\n\ncontract RockPaperScissors {\n\n    struct Player {\n        string name;\n        string status;\n        address addr;\n        bool hasAttacked;\n        uint256 revealedId;\n        uint256 itemId;\n    }\n\n    struct Item {\n        uint num;\n        string name;\n    }\n\n    uint private itemInitialValue = 1000;\n\n    // Read/write Candidates\n    mapping(uint => Player) public players;\n    // Read/write items\n    mapping(uint => Item) public items;\n\n    // Store Candidates Count\n    uint public playerCount;\n    // Store item Count\n    uint public itemCount;\n\n    //Random number generated based on member input\n    uint256 public randomNumber = 1;\n\n    // Re-render page\n    event StatusEvent ();\n    // Error message display\n    event ErrorEvent (string error);\n\n    //Add new player\n    function addPlayer (string memory _name) private {\n        playerCount ++;\n        players[playerCount] = Player(_name, \"Waiting to register\", address(0), false, itemInitialValue, itemInitialValue);\n    }\n\n    //Add new item\n    function addItem (string memory _name) private {\n        items[itemCount] = Item(itemCount, _name);\n        itemCount ++;\n    }\n\n    //register players\n    function registerPlayer (uint randNum) public {\n        if (msg.sender == players[1].addr || msg.sender == players[2].addr) {\n            emit ErrorEvent('Error: User Already registered');\n            return;\n        }\n        if (players[1].addr == address(0)) {\n            players[1].addr = msg.sender;\n            players[1].status = \"Registered\";\n        } else if (players[2].addr == address(0)) {\n            players[2].addr = msg.sender;\n            players[2].status = \"Waiting to choose\";\n            players[1].status = \"Waiting to choose\";\n        } else {\n            emit ErrorEvent('Error: No more space for new users');\n            return;\n        }\n\n        //Update random with user input\n        randomNumber = randNum ^ randomNumber;\n\n        // show updated status\n        emit StatusEvent();\n    }\n\n    // attack with given item\n    function attack (uint256 _itemId) public {\n        uint playerId = 0;\n\n        // Check if player registered\n        if (players[1].addr == msg.sender){\n            playerId = 1;\n        } else if (players[2].addr == msg.sender){\n            playerId = 2;\n        } else {\n            emit ErrorEvent('Error: Only registered Players can attack');\n            return;\n        }\n\n        //Check if both players registered\n        if (players[1].addr == address(0) || players[2].addr == address(0)){\n            emit ErrorEvent('Error: Wait for other player to register');\n            return;\n        }\n\n        // require to check if already not chosen\n        if (players[playerId].hasAttacked){\n            emit ErrorEvent('Error: Already chosen an item');\n            return;\n        }\n\n        // mark as item selected\n        players[playerId].itemId = _itemId;\n        players[playerId].hasAttacked = true;\n\n        players[playerId].status = \"Chosen item\";\n\n        // trigger voted event\n        emit StatusEvent();\n    }\n\n    // reveal chosen item\n    function revealItem (uint _itemId) public {\n        uint playerId = 0;\n\n        //Choose a player from Registered\n        if (players[1].addr == msg.sender){\n            playerId = 1;\n        } else if (players[2].addr == msg.sender){\n            playerId = 2;\n        } else {\n            emit ErrorEvent('Error: Only registered Players can attack');\n          return;\n        }\n\n        //Check if both players chosen\n        if (players[1].itemId == itemInitialValue || players[2].itemId == itemInitialValue){\n            emit ErrorEvent('Error: Wait for other player to vote');\n            return;\n        }\n\n        //Check item equal to original\n        players[playerId].revealedId = _itemId;\n        players[playerId].status = \"Revealed item\";\n\n        uint otherPlayer = 3 - playerId;\n\n        if (players[otherPlayer].revealedId != itemInitialValue) {\n            winner();\n            return;\n        }\n\n        // trigger voted event\n        emit StatusEvent();\n    }\n\n    // calculate who won\n    function winner () private {\n\n        // check revealed item match\n        if (players[1].itemId != uint256(keccak256(abi.encodePacked(players[1].revealedId + randomNumber)))){\n            emit ErrorEvent('Player 2 won, Player 1 wrong item revealed');\n            return;\n        }\n\n        if (players[2].itemId != uint256(keccak256(abi.encodePacked(players[2].revealedId + randomNumber)))){\n            emit ErrorEvent('Player 1 won, Player 2 wrong item revealed');\n            return;\n        }\n\n        uint player1Item =  players[1].revealedId % itemCount;\n        uint player2Item =  players[2].revealedId % itemCount;\n\n        // calculate winner\n        //Rock Case\n        if (player1Item == 0){\n            if (player2Item == 0) {\n                emit ErrorEvent('Draw');\n            } else if (player2Item == 1) {\n                emit ErrorEvent('Player 1 Won');\n            } else {\n                emit ErrorEvent('Player 2 Won');\n            }\n        }\n        //Paper Case\n        else if (player1Item == 1){\n            if (player2Item == 0) {\n                emit ErrorEvent('Player 1 Won');\n            } else if (player2Item == 1) {\n                emit ErrorEvent('Draw');\n            } else {\n                emit ErrorEvent('Player 2 Won');\n            }\n        }\n        //Scissor case\n        else if (player1Item == 2){\n            if (player2Item == 0) {\n                emit ErrorEvent('Player 2 Won');\n            } else if (player2Item == 1) {\n                emit ErrorEvent('Player 1 Won');\n            } else {\n                emit ErrorEvent('Draw');\n            }\n        }\n    }\n\n    function getData() public view returns(uint256) { return randomNumber; }\n\n    // Constructor\n    constructor() public {\n        addPlayer(\"Player 1\");\n        addPlayer(\"Player 2\");\n        addItem(\"Rock\");\n        addItem(\"Paper\");\n        addItem(\"Scissor\");\n    }\n}\n",
  "sourcePath": "/Users/vinamraagrawal/Blockchain/SmartContractRockPaperScissors/contracts/RockPaperScissors.sol",
  "compiler": {
    "name": "solc",
    "version": "0.5.0+commit.1d4f565a.Emscripten.clang"
  },
  "schemaVersion": "3.0.1",
  "updatedAt": "2019-02-01T21:19:50.720Z",
  "devdoc": {
    "methods": {}
  },
  "userdoc": {
    "methods": {}
  }
}