{
  "contractName": "RockPaperScissors",
  "abi": [
    {
      "constant": true,
      "inputs": [],
      "name": "choiceCount",
      "outputs": [
        {
          "name": "",
          "type": "uint256"
        }
      ],
      "payable": false,
      "stateMutability": "view",
      "type": "function",
      "signature": "0x240815b7"
    },
    {
      "constant": true,
      "inputs": [],
      "name": "candidatesCount",
      "outputs": [
        {
          "name": "",
          "type": "uint256"
        }
      ],
      "payable": false,
      "stateMutability": "view",
      "type": "function",
      "signature": "0x2d35a8a2"
    },
    {
      "constant": true,
      "inputs": [],
      "name": "playerCount",
      "outputs": [
        {
          "name": "",
          "type": "uint256"
        }
      ],
      "payable": false,
      "stateMutability": "view",
      "type": "function",
      "signature": "0x302bcc57"
    },
    {
      "constant": true,
      "inputs": [
        {
          "name": "",
          "type": "uint256"
        }
      ],
      "name": "candidates",
      "outputs": [
        {
          "name": "id",
          "type": "uint256"
        },
        {
          "name": "name",
          "type": "string"
        },
        {
          "name": "voteCount",
          "type": "uint256"
        }
      ],
      "payable": false,
      "stateMutability": "view",
      "type": "function",
      "signature": "0x3477ee2e"
    },
    {
      "constant": true,
      "inputs": [
        {
          "name": "",
          "type": "address"
        }
      ],
      "name": "voters",
      "outputs": [
        {
          "name": "",
          "type": "bool"
        }
      ],
      "payable": false,
      "stateMutability": "view",
      "type": "function",
      "signature": "0xa3ec138d"
    },
    {
      "constant": true,
      "inputs": [
        {
          "name": "",
          "type": "uint256"
        }
      ],
      "name": "choices",
      "outputs": [
        {
          "name": "num",
          "type": "uint256"
        },
        {
          "name": "name",
          "type": "string"
        }
      ],
      "payable": false,
      "stateMutability": "view",
      "type": "function",
      "signature": "0xf6fd7fde"
    },
    {
      "constant": true,
      "inputs": [
        {
          "name": "",
          "type": "uint256"
        }
      ],
      "name": "players",
      "outputs": [
        {
          "name": "name",
          "type": "string"
        },
        {
          "name": "status",
          "type": "string"
        },
        {
          "name": "addr",
          "type": "address"
        }
      ],
      "payable": false,
      "stateMutability": "view",
      "type": "function",
      "signature": "0xf71d96cb"
    },
    {
      "inputs": [],
      "payable": false,
      "stateMutability": "nonpayable",
      "type": "constructor",
      "signature": "constructor"
    },
    {
      "anonymous": false,
      "inputs": [
        {
          "indexed": true,
          "name": "_candidateId",
          "type": "uint256"
        }
      ],
      "name": "votedEvent",
      "type": "event",
      "signature": "0xfff3c900d938d21d0990d786e819f29b8d05c1ef587b462b939609625b684b16"
    },
    {
      "anonymous": false,
      "inputs": [],
      "name": "StatusEvent",
      "type": "event",
      "signature": "0x757c2310474f7896e25d3ba1aa02bb3891ccd1434dfdb3fa76354a783ba3dcc3"
    },
    {
      "anonymous": false,
      "inputs": [
        {
          "indexed": false,
          "name": "error",
          "type": "string"
        }
      ],
      "name": "ErrorEvent",
      "type": "event",
      "signature": "0x6222dc10afcca3c8cec10b1b08a9bff096c30eb574a3233be051aa5440fc41bb"
    },
    {
      "constant": false,
      "inputs": [
        {
          "name": "_candidateId",
          "type": "uint256"
        }
      ],
      "name": "vote",
      "outputs": [],
      "payable": false,
      "stateMutability": "nonpayable",
      "type": "function",
      "signature": "0x0121b93f"
    },
    {
      "constant": false,
      "inputs": [],
      "name": "registerPlayer",
      "outputs": [],
      "payable": false,
      "stateMutability": "nonpayable",
      "type": "function",
      "signature": "0x5c07a4b0"
    }
  ],
  "bytecode": "0x60806040523480156200001157600080fd5b50620000616040805190810160405280600881526020017f506c61796572203100000000000000000000000000000000000000000000000081525062000241640100000000026401000000009004565b620000b06040805190810160405280600881526020017f506c61796572203200000000000000000000000000000000000000000000000081525062000241640100000000026401000000009004565b620000ff6040805190810160405280600881526020017f506c617965722031000000000000000000000000000000000000000000000000815250620002bf640100000000026401000000009004565b6200014e6040805190810160405280600881526020017f506c617965722032000000000000000000000000000000000000000000000000815250620002bf640100000000026401000000009004565b6200019d6040805190810160405280600481526020017f526f636b00000000000000000000000000000000000000000000000000000000815250620003d9640100000000026401000000009004565b620001ec6040805190810160405280600581526020017f5061706572000000000000000000000000000000000000000000000000000000815250620003d9640100000000026401000000009004565b6200023b6040805190810160405280600781526020017f53636973736f7200000000000000000000000000000000000000000000000000815250620003d9640100000000026401000000009004565b620004f5565b600160008154809291906001019190505550606060405190810160405280600154815260200182815260200160008152506000806001548152602001908152602001600020600082015181600001556020820151816001019080519060200190620002ae92919062000446565b506040820151816002015590505050565b6005600081548092919060010191905055506060604051908101604052808281526020016040805190810160405280601381526020017f57616974696e6720746f207265676973746572000000000000000000000000008152508152602001600073ffffffffffffffffffffffffffffffffffffffff1681525060036000600554815260200190815260200160002060008201518160000190805190602001906200036c92919062000446565b5060208201518160010190805190602001906200038b92919062000446565b5060408201518160020160006101000a81548173ffffffffffffffffffffffffffffffffffffffff021916908373ffffffffffffffffffffffffffffffffffffffff16021790555090505050565b60408051908101604052806006548152602001828152506004600060065481526020019081526020016000206000820151816000015560208201518160010190805190602001906200042d92919062000446565b5090505060066000815480929190600101919050555050565b828054600181600116156101000203166002900490600052602060002090601f016020900481019282601f106200048957805160ff1916838001178555620004ba565b82800160010185558215620004ba579182015b82811115620004b95782518255916020019190600101906200049c565b5b509050620004c99190620004cd565b5090565b620004f291905b80821115620004ee576000816000905550600101620004d4565b5090565b90565b610e5580620005056000396000f3fe608060405260043610610099576000357c0100000000000000000000000000000000000000000000000000000000900463ffffffff1680630121b93f1461009e578063240815b7146100d95780632d35a8a214610104578063302bcc571461012f5780633477ee2e1461015a5780635c07a4b01461021c578063a3ec138d14610233578063f6fd7fde1461029c578063f71d96cb14610357575b600080fd5b3480156100aa57600080fd5b506100d7600480360360208110156100c157600080fd5b81019080803590602001909291905050506104aa565b005b3480156100e557600080fd5b506100ee6105cd565b6040518082815260200191505060405180910390f35b34801561011057600080fd5b506101196105d3565b6040518082815260200191505060405180910390f35b34801561013b57600080fd5b506101446105d9565b6040518082815260200191505060405180910390f35b34801561016657600080fd5b506101936004803603602081101561017d57600080fd5b81019080803590602001909291905050506105df565b6040518084815260200180602001838152602001828103825284818151815260200191508051906020019080838360005b838110156101df5780820151818401526020810190506101c4565b50505050905090810190601f16801561020c5780820380516001836020036101000a031916815260200191505b5094505050505060405180910390f35b34801561022857600080fd5b506102316106a1565b005b34801561023f57600080fd5b506102826004803603602081101561025657600080fd5b81019080803573ffffffffffffffffffffffffffffffffffffffff169060200190929190505050610b2e565b604051808215151515815260200191505060405180910390f35b3480156102a857600080fd5b506102d5600480360360208110156102bf57600080fd5b8101908080359060200190929190505050610b4e565b6040518083815260200180602001828103825283818151815260200191508051906020019080838360005b8381101561031b578082015181840152602081019050610300565b50505050905090810190601f1680156103485780820380516001836020036101000a031916815260200191505b50935050505060405180910390f35b34801561036357600080fd5b506103906004803603602081101561037a57600080fd5b8101908080359060200190929190505050610c0a565b6040518080602001806020018473ffffffffffffffffffffffffffffffffffffffff1673ffffffffffffffffffffffffffffffffffffffff168152602001838103835286818151815260200191508051906020019080838360005b838110156104065780820151818401526020810190506103eb565b50505050905090810190601f1680156104335780820380516001836020036101000a031916815260200191505b50838103825285818151815260200191508051906020019080838360005b8381101561046c578082015181840152602081019050610451565b50505050905090810190601f1680156104995780820380516001836020036101000a031916815260200191505b509550505050505060405180910390f35b600260003373ffffffffffffffffffffffffffffffffffffffff1673ffffffffffffffffffffffffffffffffffffffff16815260200190815260200160002060009054906101000a900460ff1615151561050357600080fd5b60008111801561051557506001548111155b151561052057600080fd5b6001600260003373ffffffffffffffffffffffffffffffffffffffff1673ffffffffffffffffffffffffffffffffffffffff16815260200190815260200160002060006101000a81548160ff02191690831515021790555060008082815260200190815260200160002060020160008154809291906001019190505550807ffff3c900d938d21d0990d786e819f29b8d05c1ef587b462b939609625b684b1660405160405180910390a250565b60065481565b60015481565b60055481565b6000602052806000526040600020600091509050806000015490806001018054600181600116156101000203166002900480601f0160208091040260200160405190810160405280929190818152602001828054600181600116156101000203166002900480156106915780601f1061066657610100808354040283529160200191610691565b820191906000526020600020905b81548152906001019060200180831161067457829003601f168201915b5050505050908060020154905083565b600360006001815260200190815260200160002060020160009054906101000a900473ffffffffffffffffffffffffffffffffffffffff1673ffffffffffffffffffffffffffffffffffffffff163373ffffffffffffffffffffffffffffffffffffffff1614806107745750600360006002815260200190815260200160002060020160009054906101000a900473ffffffffffffffffffffffffffffffffffffffff1673ffffffffffffffffffffffffffffffffffffffff163373ffffffffffffffffffffffffffffffffffffffff16145b156107e6577f6222dc10afcca3c8cec10b1b08a9bff096c30eb574a3233be051aa5440fc41bb60405180806020018281038252601e8152602001807f4572726f723a205573657220416c72656164792072656769737465726564000081525060200191505060405180910390a1610b2c565b600073ffffffffffffffffffffffffffffffffffffffff16600360006001815260200190815260200160002060020160009054906101000a900473ffffffffffffffffffffffffffffffffffffffff1673ffffffffffffffffffffffffffffffffffffffff16141561090e5733600360006001815260200190815260200160002060020160006101000a81548173ffffffffffffffffffffffffffffffffffffffff021916908373ffffffffffffffffffffffffffffffffffffffff1602179055506040805190810160405280600a81526020017f526567697374657265640000000000000000000000000000000000000000000081525060036000600181526020019081526020016000206001019080519060200190610908929190610d84565b50610b2b565b600073ffffffffffffffffffffffffffffffffffffffff16600360006002815260200190815260200160002060020160009054906101000a900473ffffffffffffffffffffffffffffffffffffffff1673ffffffffffffffffffffffffffffffffffffffff161415610a975733600360006002815260200190815260200160002060020160006101000a81548173ffffffffffffffffffffffffffffffffffffffff021916908373ffffffffffffffffffffffffffffffffffffffff1602179055506040805190810160405280600f81526020017f57616974696e6720746f20766f7465000000000000000000000000000000000081525060036000600281526020019081526020016000206001019080519060200190610a30929190610d84565b506040805190810160405280600f81526020017f57616974696e6720746f20766f7465000000000000000000000000000000000081525060036000600181526020019081526020016000206001019080519060200190610a91929190610d84565b50610b2a565b7f6222dc10afcca3c8cec10b1b08a9bff096c30eb574a3233be051aa5440fc41bb6040518080602001828103825260228152602001807f4572726f723a204e6f206d6f726520737061636520666f72206e65772075736581526020017f727300000000000000000000000000000000000000000000000000000000000081525060400191505060405180910390a1610b2c565b5b5b565b60026020528060005260406000206000915054906101000a900460ff1681565b6004602052806000526040600020600091509050806000015490806001018054600181600116156101000203166002900480601f016020809104026020016040519081016040528092919081815260200182805460018160011615610100020316600290048015610c005780601f10610bd557610100808354040283529160200191610c00565b820191906000526020600020905b815481529060010190602001808311610be357829003601f168201915b5050505050905082565b6003602052806000526040600020600091509050806000018054600181600116156101000203166002900480601f016020809104026020016040519081016040528092919081815260200182805460018160011615610100020316600290048015610cb65780601f10610c8b57610100808354040283529160200191610cb6565b820191906000526020600020905b815481529060010190602001808311610c9957829003601f168201915b505050505090806001018054600181600116156101000203166002900480601f016020809104026020016040519081016040528092919081815260200182805460018160011615610100020316600290048015610d545780601f10610d2957610100808354040283529160200191610d54565b820191906000526020600020905b815481529060010190602001808311610d3757829003601f168201915b5050505050908060020160009054906101000a900473ffffffffffffffffffffffffffffffffffffffff16905083565b828054600181600116156101000203166002900490600052602060002090601f016020900481019282601f10610dc557805160ff1916838001178555610df3565b82800160010185558215610df3579182015b82811115610df2578251825591602001919060010190610dd7565b5b509050610e009190610e04565b5090565b610e2691905b80821115610e22576000816000905550600101610e0a565b5090565b9056fea165627a7a72305820d1ec57875010811a388ca7f1e19de5edc773ea0784c5d921f1cd802c6553831b0029",
  "source": "pragma solidity ^0.5.0;\n\ncontract RockPaperScissors {\n\n    struct Candidate {\n        uint id;\n        string name;\n        uint voteCount;\n    }\n\n    // Read/write Candidates\n    mapping(uint => Candidate) public candidates;\n\n    // Store Candidates Count\n    uint public candidatesCount;\n\n    event votedEvent (\n        uint indexed _candidateId\n    );\n\n    // Store accounts that have voted\n    mapping(address => bool) public voters;\n\n    function addCandidate (string memory _name) private {\n        candidatesCount ++;\n        candidates[candidatesCount] = Candidate(candidatesCount, _name, 0);\n    }\n\n    function vote (uint _candidateId) public {\n        // require that they haven't voted before\n        require(!voters[msg.sender]);\n\n        // require a valid candidate\n        require(_candidateId > 0 && _candidateId <= candidatesCount);\n\n        // record that voter has voted\n        voters[msg.sender] = true;\n\n        // update candidate vote Count\n        candidates[_candidateId].voteCount ++;\n\n        // trigger voted event\n        emit votedEvent(_candidateId);\n    }\n\n    struct Player {\n        string name;\n        string status;\n        address addr;\n    }\n\n    struct Choice {\n        uint num;\n        string name;\n    }\n\n    // Read/write Candidates\n    mapping(uint => Player) public players;\n    // Read/write choices\n    mapping(uint => Choice) public choices;\n\n    // Store Candidates Count\n    uint public playerCount;\n    // Store Choice Count\n    uint public choiceCount;\n\n    // Re-render page\n    event StatusEvent ();\n    // Error message display\n    event ErrorEvent (string error);\n\n    //Add new player\n    function addPlayer (string memory _name) private {\n      playerCount ++;\n      players[playerCount] = Player(_name, \"Waiting to register\", address(0));\n    }\n\n    //Add new choice\n    function addChoice (string memory _name) private {\n      choices[choiceCount] = Choice(choiceCount, _name);\n      choiceCount ++;\n    }\n\n    //register players\n    function registerPlayer () public {\n        if (msg.sender == players[1].addr || msg.sender == players[2].addr) {\n            emit ErrorEvent('Error: User Already registered');\n            return;\n        }\n\n        if (players[1].addr == address(0)) {\n            players[1].addr = msg.sender;\n            players[1].status = \"Registered\";\n        } else if (players[2].addr == address(0)) {\n            players[2].addr = msg.sender;\n            players[2].status = \"Waiting to vote\";\n            players[1].status = \"Waiting to vote\";\n        } else {\n          emit ErrorEvent('Error: No more space for new users');\n          return;\n        }\n    }\n\n    // Constructor\n    constructor() public {\n      addCandidate(\"Player 1\");\n      addCandidate(\"Player 2\");\n      addPlayer(\"Player 1\");\n      addPlayer(\"Player 2\");\n      addChoice(\"Rock\");\n      addChoice(\"Paper\");\n      addChoice(\"Scissor\");\n    }\n}\n",
  "sourcePath": "/Users/vinamraagrawal/Blockchain/SmartContractRockPaperScissors/contracts/RockPaperScissors.sol",
  "compiler": {
    "name": "solc",
    "version": "0.5.0+commit.1d4f565a.Emscripten.clang"
  },
  "schemaVersion": "3.0.1",
  "updatedAt": "2019-02-01T11:22:38.790Z",
  "devdoc": {
    "methods": {}
  },
  "userdoc": {
    "methods": {}
  }
}