{
  "contractName": "RockPaperScissors",
  "abi": [
    {
      "constant": true,
      "inputs": [],
      "name": "playerCount",
      "outputs": [
        {
          "name": "",
          "type": "uint256"
        }
      ],
      "payable": false,
      "stateMutability": "view",
      "type": "function",
      "signature": "0x302bcc57"
    },
    {
      "constant": true,
      "inputs": [],
      "name": "itemCount",
      "outputs": [
        {
          "name": "",
          "type": "uint256"
        }
      ],
      "payable": false,
      "stateMutability": "view",
      "type": "function",
      "signature": "0x6bfb0d01"
    },
    {
      "constant": true,
      "inputs": [
        {
          "name": "",
          "type": "uint256"
        }
      ],
      "name": "items",
      "outputs": [
        {
          "name": "num",
          "type": "uint256"
        },
        {
          "name": "name",
          "type": "string"
        }
      ],
      "payable": false,
      "stateMutability": "view",
      "type": "function",
      "signature": "0xbfb231d2"
    },
    {
      "constant": true,
      "inputs": [
        {
          "name": "",
          "type": "uint256"
        }
      ],
      "name": "players",
      "outputs": [
        {
          "name": "name",
          "type": "string"
        },
        {
          "name": "status",
          "type": "string"
        },
        {
          "name": "addr",
          "type": "address"
        },
        {
          "name": "hasAttacked",
          "type": "bool"
        },
        {
          "name": "revealedId",
          "type": "uint256"
        },
        {
          "name": "itemId",
          "type": "uint256"
        }
      ],
      "payable": false,
      "stateMutability": "view",
      "type": "function",
      "signature": "0xf71d96cb"
    },
    {
      "inputs": [],
      "payable": false,
      "stateMutability": "nonpayable",
      "type": "constructor",
      "signature": "constructor"
    },
    {
      "anonymous": false,
      "inputs": [],
      "name": "StatusEvent",
      "type": "event",
      "signature": "0x757c2310474f7896e25d3ba1aa02bb3891ccd1434dfdb3fa76354a783ba3dcc3"
    },
    {
      "anonymous": false,
      "inputs": [
        {
          "indexed": false,
          "name": "error",
          "type": "string"
        }
      ],
      "name": "ErrorEvent",
      "type": "event",
      "signature": "0x6222dc10afcca3c8cec10b1b08a9bff096c30eb574a3233be051aa5440fc41bb"
    },
    {
      "constant": false,
      "inputs": [],
      "name": "registerPlayer",
      "outputs": [],
      "payable": false,
      "stateMutability": "nonpayable",
      "type": "function",
      "signature": "0x5c07a4b0"
    },
    {
      "constant": false,
      "inputs": [
        {
          "name": "_itemId",
          "type": "uint256"
        }
      ],
      "name": "attack",
      "outputs": [],
      "payable": false,
      "stateMutability": "nonpayable",
      "type": "function",
      "signature": "0x64dd891a"
    },
    {
      "constant": false,
      "inputs": [
        {
          "name": "_itemId",
          "type": "uint256"
        }
      ],
      "name": "revealItem",
      "outputs": [],
      "payable": false,
      "stateMutability": "nonpayable",
      "type": "function",
      "signature": "0x5dd1e48e"
    }
  ],
  "bytecode": "0x60806040526103e86000553480156200001757600080fd5b50620000676040805190810160405280600881526020017f506c617965722031000000000000000000000000000000000000000000000000815250620001a9640100000000026401000000009004565b620000b66040805190810160405280600881526020017f506c617965722032000000000000000000000000000000000000000000000000815250620001a9640100000000026401000000009004565b620001056040805190810160405280600481526020017f526f636b0000000000000000000000000000000000000000000000000000000081525062000310640100000000026401000000009004565b620001546040805190810160405280600581526020017f506170657200000000000000000000000000000000000000000000000000000081525062000310640100000000026401000000009004565b620001a36040805190810160405280600781526020017f53636973736f720000000000000000000000000000000000000000000000000081525062000310640100000000026401000000009004565b6200042c565b60036000815480929190600101919050555060c0604051908101604052808281526020016040805190810160405280601381526020017f57616974696e6720746f207265676973746572000000000000000000000000008152508152602001600073ffffffffffffffffffffffffffffffffffffffff168152602001600015158152602001600054815260200160005481525060016000600354815260200190815260200160002060008201518160000190805190602001906200026f9291906200037d565b5060208201518160010190805190602001906200028e9291906200037d565b5060408201518160020160006101000a81548173ffffffffffffffffffffffffffffffffffffffff021916908373ffffffffffffffffffffffffffffffffffffffff16021790555060608201518160020160146101000a81548160ff0219169083151502179055506080820151816003015560a0820151816004015590505050565b6040805190810160405280600454815260200182815250600260006004548152602001908152602001600020600082015181600001556020820151816001019080519060200190620003649291906200037d565b5090505060046000815480929190600101919050555050565b828054600181600116156101000203166002900490600052602060002090601f016020900481019282601f10620003c057805160ff1916838001178555620003f1565b82800160010185558215620003f1579182015b82811115620003f0578251825591602001919060010190620003d3565b5b50905062000400919062000404565b5090565b6200042991905b80821115620004255760008160009055506001016200040b565b5090565b90565b611a2d806200043c6000396000f3fe608060405260043610610083576000357c0100000000000000000000000000000000000000000000000000000000900463ffffffff168063302bcc57146100885780635c07a4b0146100b35780635dd1e48e146100ca57806364dd891a146101055780636bfb0d0114610140578063bfb231d21461016b578063f71d96cb14610226575b600080fd5b34801561009457600080fd5b5061009d610392565b6040518082815260200191505060405180910390f35b3480156100bf57600080fd5b506100c8610398565b005b3480156100d657600080fd5b50610103600480360360208110156100ed57600080fd5b8101908080359060200190929190505050610851565b005b34801561011157600080fd5b5061013e6004803603602081101561012857600080fd5b8101908080359060200190929190505050610b90565b005b34801561014c57600080fd5b50610155611075565b6040518082815260200191505060405180910390f35b34801561017757600080fd5b506101a46004803603602081101561018e57600080fd5b810190808035906020019092919050505061107b565b6040518083815260200180602001828103825283818151815260200191508051906020019080838360005b838110156101ea5780820151818401526020810190506101cf565b50505050905090810190601f1680156102175780820380516001836020036101000a031916815260200191505b50935050505060405180910390f35b34801561023257600080fd5b5061025f6004803603602081101561024957600080fd5b8101908080359060200190929190505050611137565b6040518080602001806020018773ffffffffffffffffffffffffffffffffffffffff1673ffffffffffffffffffffffffffffffffffffffff16815260200186151515158152602001858152602001848152602001838103835289818151815260200191508051906020019080838360005b838110156102eb5780820151818401526020810190506102d0565b50505050905090810190601f1680156103185780820380516001836020036101000a031916815260200191505b50838103825288818151815260200191508051906020019080838360005b83811015610351578082015181840152602081019050610336565b50505050905090810190601f16801561037e5780820380516001836020036101000a031916815260200191505b509850505050505050505060405180910390f35b60035481565b600160006001815260200190815260200160002060020160009054906101000a900473ffffffffffffffffffffffffffffffffffffffff1673ffffffffffffffffffffffffffffffffffffffff163373ffffffffffffffffffffffffffffffffffffffff16148061046b5750600160006002815260200190815260200160002060020160009054906101000a900473ffffffffffffffffffffffffffffffffffffffff1673ffffffffffffffffffffffffffffffffffffffff163373ffffffffffffffffffffffffffffffffffffffff16145b156104dd577f6222dc10afcca3c8cec10b1b08a9bff096c30eb574a3233be051aa5440fc41bb60405180806020018281038252601e8152602001807f4572726f723a205573657220416c72656164792072656769737465726564000081525060200191505060405180910390a161084f565b600073ffffffffffffffffffffffffffffffffffffffff16600160006001815260200190815260200160002060020160009054906101000a900473ffffffffffffffffffffffffffffffffffffffff1673ffffffffffffffffffffffffffffffffffffffff1614156106055733600160006001815260200190815260200160002060020160006101000a81548173ffffffffffffffffffffffffffffffffffffffff021916908373ffffffffffffffffffffffffffffffffffffffff1602179055506040805190810160405280600a81526020017f5265676973746572656400000000000000000000000000000000000000000000815250600160006001815260200190815260200160002060010190805190602001906105ff92919061195c565b50610822565b600073ffffffffffffffffffffffffffffffffffffffff16600160006002815260200190815260200160002060020160009054906101000a900473ffffffffffffffffffffffffffffffffffffffff1673ffffffffffffffffffffffffffffffffffffffff16141561078e5733600160006002815260200190815260200160002060020160006101000a81548173ffffffffffffffffffffffffffffffffffffffff021916908373ffffffffffffffffffffffffffffffffffffffff1602179055506040805190810160405280601181526020017f57616974696e6720746f2063686f6f73650000000000000000000000000000008152506001600060028152602001908152602001600020600101908051906020019061072792919061195c565b506040805190810160405280601181526020017f57616974696e6720746f2063686f6f73650000000000000000000000000000008152506001600060018152602001908152602001600020600101908051906020019061078892919061195c565b50610821565b7f6222dc10afcca3c8cec10b1b08a9bff096c30eb574a3233be051aa5440fc41bb6040518080602001828103825260228152602001807f4572726f723a204e6f206d6f726520737061636520666f72206e65772075736581526020017f727300000000000000000000000000000000000000000000000000000000000081525060400191505060405180910390a161084f565b5b7f757c2310474f7896e25d3ba1aa02bb3891ccd1434dfdb3fa76354a783ba3dcc360405160405180910390a15b565b60008090503373ffffffffffffffffffffffffffffffffffffffff16600160006001815260200190815260200160002060020160009054906101000a900473ffffffffffffffffffffffffffffffffffffffff1673ffffffffffffffffffffffffffffffffffffffff1614156108ca57600190506109d3565b3373ffffffffffffffffffffffffffffffffffffffff16600160006002815260200190815260200160002060020160009054906101000a900473ffffffffffffffffffffffffffffffffffffffff1673ffffffffffffffffffffffffffffffffffffffff16141561093e57600290506109d2565b7f6222dc10afcca3c8cec10b1b08a9bff096c30eb574a3233be051aa5440fc41bb6040518080602001828103825260298152602001807f4572726f723a204f6e6c79207265676973746572656420506c6179657273206381526020017f616e2061747461636b000000000000000000000000000000000000000000000081525060400191505060405180910390a150610b8d565b5b6000546001600060018152602001908152602001600020600401541480610a125750600054600160006002815260200190815260200160002060040154145b15610aab577f6222dc10afcca3c8cec10b1b08a9bff096c30eb574a3233be051aa5440fc41bb6040518080602001828103825260248152602001807f4572726f723a205761697420666f72206f7468657220706c6179657220746f2081526020017f766f74650000000000000000000000000000000000000000000000000000000081525060400191505060405180910390a150610b8d565b8160016000838152602001908152602001600020600301819055506040805190810160405280600d81526020017f52657665616c6564206974656d00000000000000000000000000000000000000815250600160008381526020019081526020016000206001019080519060200190610b2592919061195c565b5060008160030390506000546001600083815260200190815260200160002060030154141515610b5e57610b576112d0565b5050610b8d565b7f757c2310474f7896e25d3ba1aa02bb3891ccd1434dfdb3fa76354a783ba3dcc360405160405180910390a150505b50565b60008090503373ffffffffffffffffffffffffffffffffffffffff16600160006001815260200190815260200160002060020160009054906101000a900473ffffffffffffffffffffffffffffffffffffffff1673ffffffffffffffffffffffffffffffffffffffff161415610c095760019050610d12565b3373ffffffffffffffffffffffffffffffffffffffff16600160006002815260200190815260200160002060020160009054906101000a900473ffffffffffffffffffffffffffffffffffffffff1673ffffffffffffffffffffffffffffffffffffffff161415610c7d5760029050610d11565b7f6222dc10afcca3c8cec10b1b08a9bff096c30eb574a3233be051aa5440fc41bb6040518080602001828103825260298152602001807f4572726f723a204f6e6c79207265676973746572656420506c6179657273206381526020017f616e2061747461636b000000000000000000000000000000000000000000000081525060400191505060405180910390a150611072565b5b600073ffffffffffffffffffffffffffffffffffffffff16600160006001815260200190815260200160002060020160009054906101000a900473ffffffffffffffffffffffffffffffffffffffff1673ffffffffffffffffffffffffffffffffffffffff161480610de75750600073ffffffffffffffffffffffffffffffffffffffff16600160006002815260200190815260200160002060020160009054906101000a900473ffffffffffffffffffffffffffffffffffffffff1673ffffffffffffffffffffffffffffffffffffffff16145b15610e80577f6222dc10afcca3c8cec10b1b08a9bff096c30eb574a3233be051aa5440fc41bb6040518080602001828103825260288152602001807f4572726f723a205761697420666f72206f7468657220706c6179657220746f2081526020017f726567697374657200000000000000000000000000000000000000000000000081525060400191505060405180910390a150611072565b6001600082815260200190815260200160002060020160149054906101000a900460ff1615610f17577f6222dc10afcca3c8cec10b1b08a9bff096c30eb574a3233be051aa5440fc41bb60405180806020018281038252601d8152602001807f4572726f723a20416c72656164792063686f73656e20616e206974656d00000081525060200191505060405180910390a150611072565b6000821080610f2857506004548210155b15610f9b577f6222dc10afcca3c8cec10b1b08a9bff096c30eb574a3233be051aa5440fc41bb60405180806020018281038252601c8152602001807f4572726f723a20496e636f7272656374206974656d2063686f73656e0000000081525060200191505060405180910390a150611072565b816001600083815260200190815260200160002060040181905550600180600083815260200190815260200160002060020160146101000a81548160ff0219169083151502179055506040805190810160405280600b81526020017f43686f73656e206974656d00000000000000000000000000000000000000000081525060016000838152602001908152602001600020600101908051906020019061104392919061195c565b507f757c2310474f7896e25d3ba1aa02bb3891ccd1434dfdb3fa76354a783ba3dcc360405160405180910390a1505b50565b60045481565b6002602052806000526040600020600091509050806000015490806001018054600181600116156101000203166002900480601f01602080910402602001604051908101604052809291908181526020018280546001816001161561010002031660029004801561112d5780601f106111025761010080835404028352916020019161112d565b820191906000526020600020905b81548152906001019060200180831161111057829003601f168201915b5050505050905082565b6001602052806000526040600020600091509050806000018054600181600116156101000203166002900480601f0160208091040260200160405190810160405280929190818152602001828054600181600116156101000203166002900480156111e35780601f106111b8576101008083540402835291602001916111e3565b820191906000526020600020905b8154815290600101906020018083116111c657829003601f168201915b505050505090806001018054600181600116156101000203166002900480601f0160208091040260200160405190810160405280929190818152602001828054600181600116156101000203166002900480156112815780601f1061125657610100808354040283529160200191611281565b820191906000526020600020905b81548152906001019060200180831161126457829003601f168201915b5050505050908060020160009054906101000a900473ffffffffffffffffffffffffffffffffffffffff16908060020160149054906101000a900460ff16908060030154908060040154905086565b60016000600181526020019081526020016000206003015460016000600181526020019081526020016000206004015414151561139a577f6222dc10afcca3c8cec10b1b08a9bff096c30eb574a3233be051aa5440fc41bb60405180806020018281038252602a8152602001807f506c61796572203220776f6e2c20506c6179657220312077726f6e672069746581526020017f6d2072657665616c65640000000000000000000000000000000000000000000081525060400191505060405180910390a161195a565b600160006002815260200190815260200160002060030154600160006002815260200190815260200160002060040154141515611464577f6222dc10afcca3c8cec10b1b08a9bff096c30eb574a3233be051aa5440fc41bb60405180806020018281038252602a8152602001807f506c61796572203120776f6e2c20506c6179657220322077726f6e672069746581526020017f6d2072657665616c65640000000000000000000000000000000000000000000081525060400191505060405180910390a161195a565b6000600160006001815260200190815260200160002060040154141561160c5760006001600060028152602001908152602001600020600401541415611511577f6222dc10afcca3c8cec10b1b08a9bff096c30eb574a3233be051aa5440fc41bb6040518080602001828103825260048152602001807f447261770000000000000000000000000000000000000000000000000000000081525060200191505060405180910390a1611607565b60018060006002815260200190815260200160002060040154141561159d577f6222dc10afcca3c8cec10b1b08a9bff096c30eb574a3233be051aa5440fc41bb60405180806020018281038252600c8152602001807f506c61796572203120576f6e000000000000000000000000000000000000000081525060200191505060405180910390a1611606565b7f6222dc10afcca3c8cec10b1b08a9bff096c30eb574a3233be051aa5440fc41bb60405180806020018281038252600c8152602001807f506c61796572203220576f6e000000000000000000000000000000000000000081525060200191505060405180910390a15b5b611959565b6001806000600181526020019081526020016000206004015414156117b357600060016000600281526020019081526020016000206004015414156116b8577f6222dc10afcca3c8cec10b1b08a9bff096c30eb574a3233be051aa5440fc41bb60405180806020018281038252600c8152602001807f506c61796572203120576f6e000000000000000000000000000000000000000081525060200191505060405180910390a16117ae565b600180600060028152602001908152602001600020600401541415611744577f6222dc10afcca3c8cec10b1b08a9bff096c30eb574a3233be051aa5440fc41bb6040518080602001828103825260048152602001807f447261770000000000000000000000000000000000000000000000000000000081525060200191505060405180910390a16117ad565b7f6222dc10afcca3c8cec10b1b08a9bff096c30eb574a3233be051aa5440fc41bb60405180806020018281038252600c8152602001807f506c61796572203220576f6e000000000000000000000000000000000000000081525060200191505060405180910390a15b5b611958565b600260016000600181526020019081526020016000206004015414156119575760006001600060028152602001908152602001600020600401541415611860577f6222dc10afcca3c8cec10b1b08a9bff096c30eb574a3233be051aa5440fc41bb60405180806020018281038252600c8152602001807f506c61796572203220576f6e000000000000000000000000000000000000000081525060200191505060405180910390a1611956565b6001806000600281526020019081526020016000206004015414156118ec577f6222dc10afcca3c8cec10b1b08a9bff096c30eb574a3233be051aa5440fc41bb60405180806020018281038252600c8152602001807f506c61796572203120576f6e000000000000000000000000000000000000000081525060200191505060405180910390a1611955565b7f6222dc10afcca3c8cec10b1b08a9bff096c30eb574a3233be051aa5440fc41bb6040518080602001828103825260048152602001807f447261770000000000000000000000000000000000000000000000000000000081525060200191505060405180910390a15b5b5b5b5b5b565b828054600181600116156101000203166002900490600052602060002090601f016020900481019282601f1061199d57805160ff19168380011785556119cb565b828001600101855582156119cb579182015b828111156119ca5782518255916020019190600101906119af565b5b5090506119d891906119dc565b5090565b6119fe91905b808211156119fa5760008160009055506001016119e2565b5090565b9056fea165627a7a7230582081e9a773dfc6b578d5e5ad3ea4de4b337f387d40d1af11e6593b63b658ef2a130029",
  "source": "pragma solidity ^0.5.0;\n\ncontract RockPaperScissors {\n\n    struct Player {\n        string name;\n        string status;\n        address addr;\n        bool hasAttacked;\n        uint revealedId;\n        uint itemId;\n    }\n\n    struct Item {\n        uint num;\n        string name;\n    }\n\n    uint private itemInitialValue = 1000;\n\n    // Read/write Candidates\n    mapping(uint => Player) public players;\n    // Read/write items\n    mapping(uint => Item) public items;\n\n    // Store Candidates Count\n    uint public playerCount;\n    // Store item Count\n    uint public itemCount;\n\n    // Re-render page\n    event StatusEvent ();\n    // Error message display\n    event ErrorEvent (string error);\n\n    //Add new player\n    function addPlayer (string memory _name) private {\n        playerCount ++;\n        players[playerCount] = Player(_name, \"Waiting to register\", address(0), false, itemInitialValue, itemInitialValue);\n    }\n\n    //Add new item\n    function addItem (string memory _name) private {\n        items[itemCount] = Item(itemCount, _name);\n        itemCount ++;\n    }\n\n    //register players\n    function registerPlayer () public {\n        if (msg.sender == players[1].addr || msg.sender == players[2].addr) {\n            emit ErrorEvent('Error: User Already registered');\n            return;\n        }\n        if (players[1].addr == address(0)) {\n            players[1].addr = msg.sender;\n            players[1].status = \"Registered\";\n        } else if (players[2].addr == address(0)) {\n            players[2].addr = msg.sender;\n            players[2].status = \"Waiting to choose\";\n            players[1].status = \"Waiting to choose\";\n        } else {\n            emit ErrorEvent('Error: No more space for new users');\n            return;\n        }\n\n        // show updated status\n        emit StatusEvent();\n    }\n\n    // attack with given item\n    function attack (uint _itemId) public {\n        uint playerId = 0;\n\n        // Check if player registered\n        if (players[1].addr == msg.sender){\n            playerId = 1;\n        } else if (players[2].addr == msg.sender){\n            playerId = 2;\n        } else {\n            emit ErrorEvent('Error: Only registered Players can attack');\n            return;\n        }\n\n        //Check if both players registered\n        if (players[1].addr == address(0) || players[2].addr == address(0)){\n            emit ErrorEvent('Error: Wait for other player to register');\n            return;\n        }\n\n        // require to check if already not chosen\n        if (players[playerId].hasAttacked){\n            emit ErrorEvent('Error: Already chosen an item');\n            return;\n        }\n\n        // require a valid item\n        if (_itemId < 0 || _itemId >= itemCount){\n            emit ErrorEvent('Error: Incorrect item chosen');\n            return;\n        }\n\n        // mark as item selected\n        players[playerId].itemId = _itemId;\n        players[playerId].hasAttacked = true;\n\n        players[playerId].status = \"Chosen item\";\n\n        // trigger voted event\n        emit StatusEvent();\n    }\n\n    // reveal chosen item\n    function revealItem (uint _itemId) public {\n        uint playerId = 0;\n\n        //Choose a player from Registered\n        if (players[1].addr == msg.sender){\n            playerId = 1;\n        } else if (players[2].addr == msg.sender){\n            playerId = 2;\n        } else {\n            emit ErrorEvent('Error: Only registered Players can attack');\n          return;\n        }\n\n        //Check if both players chosen\n        if (players[1].itemId == itemInitialValue || players[2].itemId == itemInitialValue){\n            emit ErrorEvent('Error: Wait for other player to vote');\n            return;\n        }\n\n        //Check item equal to original\n        players[playerId].revealedId = _itemId;\n        players[playerId].status = \"Revealed item\";\n\n        uint otherPlayer = 3 - playerId;\n\n        if (players[otherPlayer].revealedId != itemInitialValue) {\n            winner();\n            return;\n        }\n\n        // trigger voted event\n        emit StatusEvent();\n    }\n\n    // calculate who won\n    function winner () private {\n\n        // check revealed item match\n        if (players[1].itemId != players[1].revealedId ){\n            emit ErrorEvent('Player 2 won, Player 1 wrong item revealed');\n            return;\n        }\n\n        if (players[2].itemId != players[2].revealedId ){\n            emit ErrorEvent('Player 1 won, Player 2 wrong item revealed');\n            return;\n        }\n\n        // calculate winner\n        //Rock Case\n        if (players[1].itemId == 0){\n            if (players[2].itemId == 0) {\n                emit ErrorEvent('Draw');\n            } else if (players[2].itemId == 1) {\n                emit ErrorEvent('Player 1 Won');\n            } else {\n                emit ErrorEvent('Player 2 Won');\n            }\n        }\n        //Paper Case\n        else if (players[1].itemId == 1){\n            if (players[2].itemId == 0) {\n                emit ErrorEvent('Player 1 Won');\n            } else if (players[2].itemId == 1) {\n                emit ErrorEvent('Draw');\n            } else {\n                emit ErrorEvent('Player 2 Won');\n            }\n        }\n        //Scissor case\n        else if (players[1].itemId == 2){\n            if (players[2].itemId == 0) {\n                emit ErrorEvent('Player 2 Won');\n            } else if (players[2].itemId == 1) {\n                emit ErrorEvent('Player 1 Won');\n            } else {\n                emit ErrorEvent('Draw');\n            }\n        }\n    }\n\n    // Constructor\n    constructor() public {\n        addPlayer(\"Player 1\");\n        addPlayer(\"Player 2\");\n        addItem(\"Rock\");\n        addItem(\"Paper\");\n        addItem(\"Scissor\");\n    }\n}\n",
  "sourcePath": "/Users/vinamraagrawal/Blockchain/SmartContractRockPaperScissors/contracts/RockPaperScissors.sol",
  "compiler": {
    "name": "solc",
    "version": "0.5.0+commit.1d4f565a.Emscripten.clang"
  },
  "schemaVersion": "3.0.1",
  "updatedAt": "2019-02-01T17:03:25.193Z",
  "devdoc": {
    "methods": {}
  },
  "userdoc": {
    "methods": {}
  }
}