{
  "contractName": "RockPaperScissors",
  "abi": [
    {
      "constant": true,
      "inputs": [],
      "name": "candidatesCount",
      "outputs": [
        {
          "name": "",
          "type": "uint256"
        }
      ],
      "payable": false,
      "stateMutability": "view",
      "type": "function",
      "signature": "0x2d35a8a2"
    },
    {
      "constant": true,
      "inputs": [],
      "name": "playerCount",
      "outputs": [
        {
          "name": "",
          "type": "uint256"
        }
      ],
      "payable": false,
      "stateMutability": "view",
      "type": "function",
      "signature": "0x302bcc57"
    },
    {
      "constant": true,
      "inputs": [
        {
          "name": "",
          "type": "uint256"
        }
      ],
      "name": "candidates",
      "outputs": [
        {
          "name": "id",
          "type": "uint256"
        },
        {
          "name": "name",
          "type": "string"
        },
        {
          "name": "voteCount",
          "type": "uint256"
        }
      ],
      "payable": false,
      "stateMutability": "view",
      "type": "function",
      "signature": "0x3477ee2e"
    },
    {
      "constant": true,
      "inputs": [
        {
          "name": "",
          "type": "address"
        }
      ],
      "name": "voters",
      "outputs": [
        {
          "name": "",
          "type": "bool"
        }
      ],
      "payable": false,
      "stateMutability": "view",
      "type": "function",
      "signature": "0xa3ec138d"
    },
    {
      "constant": true,
      "inputs": [
        {
          "name": "",
          "type": "uint256"
        }
      ],
      "name": "players",
      "outputs": [
        {
          "name": "name",
          "type": "string"
        },
        {
          "name": "status",
          "type": "string"
        },
        {
          "name": "addr",
          "type": "address"
        }
      ],
      "payable": false,
      "stateMutability": "view",
      "type": "function",
      "signature": "0xf71d96cb"
    },
    {
      "inputs": [],
      "payable": false,
      "stateMutability": "nonpayable",
      "type": "constructor",
      "signature": "constructor"
    },
    {
      "anonymous": false,
      "inputs": [
        {
          "indexed": true,
          "name": "_candidateId",
          "type": "uint256"
        }
      ],
      "name": "votedEvent",
      "type": "event",
      "signature": "0xfff3c900d938d21d0990d786e819f29b8d05c1ef587b462b939609625b684b16"
    },
    {
      "anonymous": false,
      "inputs": [],
      "name": "StatusEvent",
      "type": "event",
      "signature": "0x757c2310474f7896e25d3ba1aa02bb3891ccd1434dfdb3fa76354a783ba3dcc3"
    },
    {
      "anonymous": false,
      "inputs": [
        {
          "indexed": false,
          "name": "error",
          "type": "string"
        }
      ],
      "name": "ErrorEvent",
      "type": "event",
      "signature": "0x6222dc10afcca3c8cec10b1b08a9bff096c30eb574a3233be051aa5440fc41bb"
    },
    {
      "constant": false,
      "inputs": [
        {
          "name": "_candidateId",
          "type": "uint256"
        }
      ],
      "name": "vote",
      "outputs": [],
      "payable": false,
      "stateMutability": "nonpayable",
      "type": "function",
      "signature": "0x0121b93f"
    },
    {
      "constant": false,
      "inputs": [],
      "name": "registerPlayer",
      "outputs": [],
      "payable": false,
      "stateMutability": "nonpayable",
      "type": "function",
      "signature": "0x5c07a4b0"
    }
  ],
  "bytecode": "0x60806040523480156200001157600080fd5b50620000616040805190810160405280600881526020017f506c61796572203100000000000000000000000000000000000000000000000081525062000154640100000000026401000000009004565b620000b06040805190810160405280600881526020017f506c61796572203200000000000000000000000000000000000000000000000081525062000154640100000000026401000000009004565b620000ff6040805190810160405280600881526020017f506c617965722031000000000000000000000000000000000000000000000000815250620001d2640100000000026401000000009004565b6200014e6040805190810160405280600881526020017f506c617965722032000000000000000000000000000000000000000000000000815250620001d2640100000000026401000000009004565b6200039b565b600160008154809291906001019190505550606060405190810160405280600154815260200182815260200160008152506000806001548152602001908152602001600020600082015181600001556020820151816001019080519060200190620001c1929190620002ec565b506040820151816002015590505050565b6004600081548092919060010191905055506060604051908101604052808281526020016040805190810160405280601381526020017f57616974696e6720746f207265676973746572000000000000000000000000008152508152602001600073ffffffffffffffffffffffffffffffffffffffff1681525060036000600454815260200190815260200160002060008201518160000190805190602001906200027f929190620002ec565b5060208201518160010190805190602001906200029e929190620002ec565b5060408201518160020160006101000a81548173ffffffffffffffffffffffffffffffffffffffff021916908373ffffffffffffffffffffffffffffffffffffffff16021790555090505050565b828054600181600116156101000203166002900490600052602060002090601f016020900481019282601f106200032f57805160ff191683800117855562000360565b8280016001018555821562000360579182015b828111156200035f57825182559160200191906001019062000342565b5b5090506200036f919062000373565b5090565b6200039891905b80821115620003945760008160009055506001016200037a565b5090565b90565b610b8c80620003ab6000396000f3fe608060405260043610610083576000357c0100000000000000000000000000000000000000000000000000000000900463ffffffff1680630121b93f146100885780632d35a8a2146100c3578063302bcc57146100ee5780633477ee2e146101195780635c07a4b0146101db578063a3ec138d146101f2578063f71d96cb1461025b575b600080fd5b34801561009457600080fd5b506100c1600480360360208110156100ab57600080fd5b81019080803590602001909291905050506103ae565b005b3480156100cf57600080fd5b506100d86104d1565b6040518082815260200191505060405180910390f35b3480156100fa57600080fd5b506101036104d7565b6040518082815260200191505060405180910390f35b34801561012557600080fd5b506101526004803603602081101561013c57600080fd5b81019080803590602001909291905050506104dd565b6040518084815260200180602001838152602001828103825284818151815260200191508051906020019080838360005b8381101561019e578082015181840152602081019050610183565b50505050905090810190601f1680156101cb5780820380516001836020036101000a031916815260200191505b5094505050505060405180910390f35b3480156101e757600080fd5b506101f061059f565b005b3480156101fe57600080fd5b506102416004803603602081101561021557600080fd5b81019080803573ffffffffffffffffffffffffffffffffffffffff169060200190929190505050610921565b604051808215151515815260200191505060405180910390f35b34801561026757600080fd5b506102946004803603602081101561027e57600080fd5b8101908080359060200190929190505050610941565b6040518080602001806020018473ffffffffffffffffffffffffffffffffffffffff1673ffffffffffffffffffffffffffffffffffffffff168152602001838103835286818151815260200191508051906020019080838360005b8381101561030a5780820151818401526020810190506102ef565b50505050905090810190601f1680156103375780820380516001836020036101000a031916815260200191505b50838103825285818151815260200191508051906020019080838360005b83811015610370578082015181840152602081019050610355565b50505050905090810190601f16801561039d5780820380516001836020036101000a031916815260200191505b509550505050505060405180910390f35b600260003373ffffffffffffffffffffffffffffffffffffffff1673ffffffffffffffffffffffffffffffffffffffff16815260200190815260200160002060009054906101000a900460ff1615151561040757600080fd5b60008111801561041957506001548111155b151561042457600080fd5b6001600260003373ffffffffffffffffffffffffffffffffffffffff1673ffffffffffffffffffffffffffffffffffffffff16815260200190815260200160002060006101000a81548160ff02191690831515021790555060008082815260200190815260200160002060020160008154809291906001019190505550807ffff3c900d938d21d0990d786e819f29b8d05c1ef587b462b939609625b684b1660405160405180910390a250565b60015481565b60045481565b6000602052806000526040600020600091509050806000015490806001018054600181600116156101000203166002900480601f01602080910402602001604051908101604052809291908181526020018280546001816001161561010002031660029004801561058f5780601f106105645761010080835404028352916020019161058f565b820191906000526020600020905b81548152906001019060200180831161057257829003601f168201915b5050505050908060020154905083565b600360006001815260200190815260200160002060020160009054906101000a900473ffffffffffffffffffffffffffffffffffffffff1673ffffffffffffffffffffffffffffffffffffffff163373ffffffffffffffffffffffffffffffffffffffff1614806106725750600360006002815260200190815260200160002060020160009054906101000a900473ffffffffffffffffffffffffffffffffffffffff1673ffffffffffffffffffffffffffffffffffffffff163373ffffffffffffffffffffffffffffffffffffffff16145b156106e4577f6222dc10afcca3c8cec10b1b08a9bff096c30eb574a3233be051aa5440fc41bb60405180806020018281038252601e8152602001807f4572726f723a205573657220416c72656164792072656769737465726564000081525060200191505060405180910390a161091f565b6000809050600073ffffffffffffffffffffffffffffffffffffffff16600360006001815260200190815260200160002060020160009054906101000a900473ffffffffffffffffffffffffffffffffffffffff1673ffffffffffffffffffffffffffffffffffffffff16141561075e5760019050610868565b600073ffffffffffffffffffffffffffffffffffffffff16600360006002815260200190815260200160002060020160009054906101000a900473ffffffffffffffffffffffffffffffffffffffff1673ffffffffffffffffffffffffffffffffffffffff1614156107d35760029050610867565b7f6222dc10afcca3c8cec10b1b08a9bff096c30eb574a3233be051aa5440fc41bb6040518080602001828103825260228152602001807f4572726f723a204e6f206d6f726520737061636520666f72206e65772075736581526020017f727300000000000000000000000000000000000000000000000000000000000081525060400191505060405180910390a15061091f565b5b336003600083815260200190815260200160002060020160006101000a81548173ffffffffffffffffffffffffffffffffffffffff021916908373ffffffffffffffffffffffffffffffffffffffff1602179055506040805190810160405280600a81526020017f526567697374657265640000000000000000000000000000000000000000000081525060036000838152602001908152602001600020600101908051906020019061091c929190610abb565b50505b565b60026020528060005260406000206000915054906101000a900460ff1681565b6003602052806000526040600020600091509050806000018054600181600116156101000203166002900480601f0160208091040260200160405190810160405280929190818152602001828054600181600116156101000203166002900480156109ed5780601f106109c2576101008083540402835291602001916109ed565b820191906000526020600020905b8154815290600101906020018083116109d057829003601f168201915b505050505090806001018054600181600116156101000203166002900480601f016020809104026020016040519081016040528092919081815260200182805460018160011615610100020316600290048015610a8b5780601f10610a6057610100808354040283529160200191610a8b565b820191906000526020600020905b815481529060010190602001808311610a6e57829003601f168201915b5050505050908060020160009054906101000a900473ffffffffffffffffffffffffffffffffffffffff16905083565b828054600181600116156101000203166002900490600052602060002090601f016020900481019282601f10610afc57805160ff1916838001178555610b2a565b82800160010185558215610b2a579182015b82811115610b29578251825591602001919060010190610b0e565b5b509050610b379190610b3b565b5090565b610b5d91905b80821115610b59576000816000905550600101610b41565b5090565b9056fea165627a7a72305820adda09a5a5fdb65414690258b287ad5138b6b80a92ee5784b0e1e224e3d3262d0029",
  "source": "pragma solidity ^0.5.0;\n\ncontract RockPaperScissors {\n\n    struct Candidate {\n        uint id;\n        string name;\n        uint voteCount;\n    }\n\n    // Read/write Candidates\n    mapping(uint => Candidate) public candidates;\n\n    // Store Candidates Count\n    uint public candidatesCount;\n\n    event votedEvent (\n        uint indexed _candidateId\n    );\n\n    // Store accounts that have voted\n    mapping(address => bool) public voters;\n\n    function addCandidate (string memory _name) private {\n        candidatesCount ++;\n        candidates[candidatesCount] = Candidate(candidatesCount, _name, 0);\n    }\n\n    function vote (uint _candidateId) public {\n        // require that they haven't voted before\n        require(!voters[msg.sender]);\n\n        // require a valid candidate\n        require(_candidateId > 0 && _candidateId <= candidatesCount);\n\n        // record that voter has voted\n        voters[msg.sender] = true;\n\n        // update candidate vote Count\n        candidates[_candidateId].voteCount ++;\n\n        // trigger voted event\n        emit votedEvent(_candidateId);\n    }\n\n    struct Player {\n        string name;\n        string status;\n        address addr;\n    }\n\n    // Read/write Candidates\n    mapping(uint => Player) public players;\n\n    // Store Candidates Count\n    uint public playerCount;\n\n    // Re-render page\n    event StatusEvent ();\n\n    // Error message display\n    event ErrorEvent (string error);\n\n    //Add new player\n    function addPlayer (string memory _name) private {\n      playerCount ++;\n      players[playerCount] = Player(_name, \"Waiting to register\", address(0));\n    }\n\n    //register players\n    function registerPlayer () public {\n        if (msg.sender == players[1].addr || msg.sender == players[2].addr) {\n            emit ErrorEvent('Error: User Already registered');\n            return;\n        }\n// \n        uint playerId = 0;\n\n        if (players[1].addr == address(0)) {\n            playerId = 1;\n        } else if (players[2].addr == address(0)) {\n            playerId = 2;\n        } else {\n          emit ErrorEvent('Error: No more space for new users');\n          return;\n        }\n        players[playerId].addr = msg.sender;\n        players[playerId].status = \"Registered\";\n\n        // trigger voted event\n        // emit StatusEvent();\n    }\n\n    // Constructor\n    constructor() public {\n      addCandidate(\"Player 1\");\n      addCandidate(\"Player 2\");\n      addPlayer(\"Player 1\");\n      addPlayer(\"Player 2\");\n    }\n}\n",
  "sourcePath": "/Users/vinamraagrawal/Blockchain/SmartContractRockPaperScissors/contracts/RockPaperScissors.sol",
  "compiler": {
    "name": "solc",
    "version": "0.5.0+commit.1d4f565a.Emscripten.clang"
  },
  "schemaVersion": "3.0.1",
  "updatedAt": "2019-02-01T01:10:04.404Z",
  "devdoc": {
    "methods": {}
  },
  "userdoc": {
    "methods": {}
  }
}