{
  "contractName": "RockPaperScissors",
  "abi": [
    {
      "constant": true,
      "inputs": [],
      "name": "playerCount",
      "outputs": [
        {
          "name": "",
          "type": "uint256"
        }
      ],
      "payable": false,
      "stateMutability": "view",
      "type": "function",
      "signature": "0x302bcc57"
    },
    {
      "constant": true,
      "inputs": [],
      "name": "itemCount",
      "outputs": [
        {
          "name": "",
          "type": "uint256"
        }
      ],
      "payable": false,
      "stateMutability": "view",
      "type": "function",
      "signature": "0x6bfb0d01"
    },
    {
      "constant": true,
      "inputs": [
        {
          "name": "",
          "type": "uint256"
        }
      ],
      "name": "items",
      "outputs": [
        {
          "name": "num",
          "type": "uint256"
        },
        {
          "name": "name",
          "type": "string"
        }
      ],
      "payable": false,
      "stateMutability": "view",
      "type": "function",
      "signature": "0xbfb231d2"
    },
    {
      "constant": true,
      "inputs": [
        {
          "name": "",
          "type": "uint256"
        }
      ],
      "name": "players",
      "outputs": [
        {
          "name": "name",
          "type": "string"
        },
        {
          "name": "status",
          "type": "string"
        },
        {
          "name": "addr",
          "type": "address"
        },
        {
          "name": "hasAttacked",
          "type": "bool"
        },
        {
          "name": "itemNo",
          "type": "uint256"
        }
      ],
      "payable": false,
      "stateMutability": "view",
      "type": "function",
      "signature": "0xf71d96cb"
    },
    {
      "inputs": [],
      "payable": false,
      "stateMutability": "nonpayable",
      "type": "constructor",
      "signature": "constructor"
    },
    {
      "anonymous": false,
      "inputs": [],
      "name": "StatusEvent",
      "type": "event",
      "signature": "0x757c2310474f7896e25d3ba1aa02bb3891ccd1434dfdb3fa76354a783ba3dcc3"
    },
    {
      "anonymous": false,
      "inputs": [
        {
          "indexed": false,
          "name": "error",
          "type": "string"
        }
      ],
      "name": "ErrorEvent",
      "type": "event",
      "signature": "0x6222dc10afcca3c8cec10b1b08a9bff096c30eb574a3233be051aa5440fc41bb"
    },
    {
      "constant": false,
      "inputs": [],
      "name": "registerPlayer",
      "outputs": [],
      "payable": false,
      "stateMutability": "nonpayable",
      "type": "function",
      "signature": "0x5c07a4b0"
    },
    {
      "constant": false,
      "inputs": [
        {
          "name": "_itemId",
          "type": "uint256"
        }
      ],
      "name": "attack",
      "outputs": [],
      "payable": false,
      "stateMutability": "nonpayable",
      "type": "function",
      "signature": "0x64dd891a"
    }
  ],
  "bytecode": "0x60806040523480156200001157600080fd5b50620000616040805190810160405280600881526020017f506c617965722031000000000000000000000000000000000000000000000000815250620001a3640100000000026401000000009004565b620000b06040805190810160405280600881526020017f506c617965722032000000000000000000000000000000000000000000000000815250620001a3640100000000026401000000009004565b620000ff6040805190810160405280600481526020017f526f636b00000000000000000000000000000000000000000000000000000000815250620002f6640100000000026401000000009004565b6200014e6040805190810160405280600581526020017f5061706572000000000000000000000000000000000000000000000000000000815250620002f6640100000000026401000000009004565b6200019d6040805190810160405280600781526020017f53636973736f7200000000000000000000000000000000000000000000000000815250620002f6640100000000026401000000009004565b62000412565b60026000815480929190600101919050555060a0604051908101604052808281526020016040805190810160405280601381526020017f57616974696e6720746f207265676973746572000000000000000000000000008152508152602001600073ffffffffffffffffffffffffffffffffffffffff1681526020016000151581526020016000815250600080600254815260200190815260200160002060008201518160000190805190602001906200025f92919062000363565b5060208201518160010190805190602001906200027e92919062000363565b5060408201518160020160006101000a81548173ffffffffffffffffffffffffffffffffffffffff021916908373ffffffffffffffffffffffffffffffffffffffff16021790555060608201518160020160146101000a81548160ff0219169083151502179055506080820151816003015590505050565b60408051908101604052806003548152602001828152506001600060035481526020019081526020016000206000820151816000015560208201518160010190805190602001906200034a92919062000363565b5090505060036000815480929190600101919050555050565b828054600181600116156101000203166002900490600052602060002090601f016020900481019282601f10620003a657805160ff1916838001178555620003d7565b82800160010185558215620003d7579182015b82811115620003d6578251825591602001919060010190620003b9565b5b509050620003e69190620003ea565b5090565b6200040f91905b808211156200040b576000816000905550600101620003f1565b5090565b90565b610fff80620004226000396000f3fe608060405260043610610078576000357c0100000000000000000000000000000000000000000000000000000000900463ffffffff168063302bcc571461007d5780635c07a4b0146100a857806364dd891a146100bf5780636bfb0d01146100fa578063bfb231d214610125578063f71d96cb146101e0575b600080fd5b34801561008957600080fd5b50610092610345565b6040518082815260200191505060405180910390f35b3480156100b457600080fd5b506100bd61034b565b005b3480156100cb57600080fd5b506100f8600480360360208110156100e257600080fd5b81019080803590602001909291905050506107fb565b005b34801561010657600080fd5b5061010f610cd9565b6040518082815260200191505060405180910390f35b34801561013157600080fd5b5061015e6004803603602081101561014857600080fd5b8101908080359060200190929190505050610cdf565b6040518083815260200180602001828103825283818151815260200191508051906020019080838360005b838110156101a4578082015181840152602081019050610189565b50505050905090810190601f1680156101d15780820380516001836020036101000a031916815260200191505b50935050505060405180910390f35b3480156101ec57600080fd5b506102196004803603602081101561020357600080fd5b8101908080359060200190929190505050610d9b565b6040518080602001806020018673ffffffffffffffffffffffffffffffffffffffff1673ffffffffffffffffffffffffffffffffffffffff16815260200185151515158152602001848152602001838103835288818151815260200191508051906020019080838360005b8381101561029f578082015181840152602081019050610284565b50505050905090810190601f1680156102cc5780820380516001836020036101000a031916815260200191505b50838103825287818151815260200191508051906020019080838360005b838110156103055780820151818401526020810190506102ea565b50505050905090810190601f1680156103325780820380516001836020036101000a031916815260200191505b5097505050505050505060405180910390f35b60025481565b6000806001815260200190815260200160002060020160009054906101000a900473ffffffffffffffffffffffffffffffffffffffff1673ffffffffffffffffffffffffffffffffffffffff163373ffffffffffffffffffffffffffffffffffffffff16148061041c57506000806002815260200190815260200160002060020160009054906101000a900473ffffffffffffffffffffffffffffffffffffffff1673ffffffffffffffffffffffffffffffffffffffff163373ffffffffffffffffffffffffffffffffffffffff16145b1561048e577f6222dc10afcca3c8cec10b1b08a9bff096c30eb574a3233be051aa5440fc41bb60405180806020018281038252601e8152602001807f4572726f723a205573657220416c72656164792072656769737465726564000081525060200191505060405180910390a16107f9565b600073ffffffffffffffffffffffffffffffffffffffff166000806001815260200190815260200160002060020160009054906101000a900473ffffffffffffffffffffffffffffffffffffffff1673ffffffffffffffffffffffffffffffffffffffff1614156105b357336000806001815260200190815260200160002060020160006101000a81548173ffffffffffffffffffffffffffffffffffffffff021916908373ffffffffffffffffffffffffffffffffffffffff1602179055506040805190810160405280600a81526020017f52656769737465726564000000000000000000000000000000000000000000008152506000806001815260200190815260200160002060010190805190602001906105ad929190610f2e565b506107cc565b600073ffffffffffffffffffffffffffffffffffffffff166000806002815260200190815260200160002060020160009054906101000a900473ffffffffffffffffffffffffffffffffffffffff1673ffffffffffffffffffffffffffffffffffffffff16141561073857336000806002815260200190815260200160002060020160006101000a81548173ffffffffffffffffffffffffffffffffffffffff021916908373ffffffffffffffffffffffffffffffffffffffff1602179055506040805190810160405280600f81526020017f57616974696e6720746f20766f746500000000000000000000000000000000008152506000806002815260200190815260200160002060010190805190602001906106d2929190610f2e565b506040805190810160405280600f81526020017f57616974696e6720746f20766f74650000000000000000000000000000000000815250600080600181526020019081526020016000206001019080519060200190610732929190610f2e565b506107cb565b7f6222dc10afcca3c8cec10b1b08a9bff096c30eb574a3233be051aa5440fc41bb6040518080602001828103825260228152602001807f4572726f723a204e6f206d6f726520737061636520666f72206e65772075736581526020017f727300000000000000000000000000000000000000000000000000000000000081525060400191505060405180910390a16107f9565b5b7f757c2310474f7896e25d3ba1aa02bb3891ccd1434dfdb3fa76354a783ba3dcc360405160405180910390a15b565b60008090503373ffffffffffffffffffffffffffffffffffffffff166000806001815260200190815260200160002060020160009054906101000a900473ffffffffffffffffffffffffffffffffffffffff1673ffffffffffffffffffffffffffffffffffffffff161415610873576001905061097b565b3373ffffffffffffffffffffffffffffffffffffffff166000806002815260200190815260200160002060020160009054906101000a900473ffffffffffffffffffffffffffffffffffffffff1673ffffffffffffffffffffffffffffffffffffffff1614156108e6576002905061097a565b7f6222dc10afcca3c8cec10b1b08a9bff096c30eb574a3233be051aa5440fc41bb6040518080602001828103825260298152602001807f4572726f723a204f6e6c79207265676973746572656420506c6179657273206381526020017f616e2061747461636b000000000000000000000000000000000000000000000081525060400191505060405180910390a150610cd6565b5b600073ffffffffffffffffffffffffffffffffffffffff166000806001815260200190815260200160002060020160009054906101000a900473ffffffffffffffffffffffffffffffffffffffff1673ffffffffffffffffffffffffffffffffffffffff161480610a4e5750600073ffffffffffffffffffffffffffffffffffffffff166000806002815260200190815260200160002060020160009054906101000a900473ffffffffffffffffffffffffffffffffffffffff1673ffffffffffffffffffffffffffffffffffffffff16145b15610ae7577f6222dc10afcca3c8cec10b1b08a9bff096c30eb574a3233be051aa5440fc41bb6040518080602001828103825260288152602001807f4572726f723a205761697420666f72206f7468657220706c6179657220746f2081526020017f726567697374657200000000000000000000000000000000000000000000000081525060400191505060405180910390a150610cd6565b60008082815260200190815260200160002060020160149054906101000a900460ff1615610b7d577f6222dc10afcca3c8cec10b1b08a9bff096c30eb574a3233be051aa5440fc41bb60405180806020018281038252601d8152602001807f4572726f723a20416c72656164792063686f73656e20616e206974656d00000081525060200191505060405180910390a150610cd6565b6000821080610b8e57506003548210155b15610c01577f6222dc10afcca3c8cec10b1b08a9bff096c30eb574a3233be051aa5440fc41bb60405180806020018281038252601c8152602001807f4572726f723a20496e636f7272656374206974656d2063686f73656e0000000081525060200191505060405180910390a150610cd6565b8160008083815260200190815260200160002060030181905550600160008083815260200190815260200160002060020160146101000a81548160ff0219169083151502179055506040805190810160405280600b81526020017f43686f73656e206974656d0000000000000000000000000000000000000000008152506000808381526020019081526020016000206001019080519060200190610ca7929190610f2e565b507f757c2310474f7896e25d3ba1aa02bb3891ccd1434dfdb3fa76354a783ba3dcc360405160405180910390a1505b50565b60035481565b6001602052806000526040600020600091509050806000015490806001018054600181600116156101000203166002900480601f016020809104026020016040519081016040528092919081815260200182805460018160011615610100020316600290048015610d915780601f10610d6657610100808354040283529160200191610d91565b820191906000526020600020905b815481529060010190602001808311610d7457829003601f168201915b5050505050905082565b6000602052806000526040600020600091509050806000018054600181600116156101000203166002900480601f016020809104026020016040519081016040528092919081815260200182805460018160011615610100020316600290048015610e475780601f10610e1c57610100808354040283529160200191610e47565b820191906000526020600020905b815481529060010190602001808311610e2a57829003601f168201915b505050505090806001018054600181600116156101000203166002900480601f016020809104026020016040519081016040528092919081815260200182805460018160011615610100020316600290048015610ee55780601f10610eba57610100808354040283529160200191610ee5565b820191906000526020600020905b815481529060010190602001808311610ec857829003601f168201915b5050505050908060020160009054906101000a900473ffffffffffffffffffffffffffffffffffffffff16908060020160149054906101000a900460ff16908060030154905085565b828054600181600116156101000203166002900490600052602060002090601f016020900481019282601f10610f6f57805160ff1916838001178555610f9d565b82800160010185558215610f9d579182015b82811115610f9c578251825591602001919060010190610f81565b5b509050610faa9190610fae565b5090565b610fd091905b80821115610fcc576000816000905550600101610fb4565b5090565b9056fea165627a7a723058207f1a2a8a178786f1f6ffb80792ae4e0ba9f0d3e360eaa0a4b89cb9ecd3b3614e0029",
  "source": "pragma solidity ^0.5.0;\n\ncontract RockPaperScissors {\n\n    struct Player {\n        string name;\n        string status;\n        address addr;\n        bool hasAttacked;\n        uint itemNo;\n    }\n\n    struct Item {\n        uint num;\n        string name;\n    }\n\n    // Read/write Candidates\n    mapping(uint => Player) public players;\n    // Read/write items\n    mapping(uint => Item) public items;\n\n    // Store Candidates Count\n    uint public playerCount;\n    // Store item Count\n    uint public itemCount;\n\n    // Re-render page\n    event StatusEvent ();\n    // Error message display\n    event ErrorEvent (string error);\n\n    //Add new player\n    function addPlayer (string memory _name) private {\n      playerCount ++;\n      players[playerCount] = Player(_name, \"Waiting to register\", address(0), false, 0);\n    }\n\n    //Add new item\n    function addItem (string memory _name) private {\n      items[itemCount] = Item(itemCount, _name);\n      itemCount ++;\n    }\n\n    //register players\n    function registerPlayer () public {\n        if (msg.sender == players[1].addr || msg.sender == players[2].addr) {\n            emit ErrorEvent('Error: User Already registered');\n            return;\n        }\n        if (players[1].addr == address(0)) {\n            players[1].addr = msg.sender;\n            players[1].status = \"Registered\";\n        } else if (players[2].addr == address(0)) {\n            players[2].addr = msg.sender;\n            players[2].status = \"Waiting to vote\";\n            players[1].status = \"Waiting to vote\";\n        } else {\n          emit ErrorEvent('Error: No more space for new users');\n          return;\n        }\n\n        // trigger voted event\n        emit StatusEvent();\n    }\n\n    // attack with given item\n    function attack (uint _itemId) public {\n        uint playerId = 0;\n\n        // Check if player registered\n        if (players[1].addr == msg.sender){\n            playerId = 1;\n        } else if (players[2].addr == msg.sender){\n            playerId = 2;\n        } else {\n          emit ErrorEvent('Error: Only registered Players can attack');\n          return;\n        }\n\n        //Check if both players registered\n        if (players[1].addr == address(0) || players[2].addr == address(0)){\n          emit ErrorEvent('Error: Wait for other player to register');\n          return;\n        }\n\n        // require to check if already not chosen\n        if (players[playerId].hasAttacked){\n          emit ErrorEvent('Error: Already chosen an item');\n          return;\n        }\n\n        // require a valid item\n        if (_itemId < 0 || _itemId >= itemCount){\n          emit ErrorEvent('Error: Incorrect item chosen');\n          return;\n        }\n\n        // mark as item selected\n        players[playerId].itemNo = _itemId;\n        players[playerId].hasAttacked = true;\n\n        players[playerId].status = \"Chosen item\";\n\n        // trigger voted event\n        emit StatusEvent();\n    }\n\n    // Constructor\n    constructor() public {\n      addPlayer(\"Player 1\");\n      addPlayer(\"Player 2\");\n      addItem(\"Rock\");\n      addItem(\"Paper\");\n      addItem(\"Scissor\");\n    }\n}\n",
  "sourcePath": "/Users/vinamraagrawal/Blockchain/SmartContractRockPaperScissors/contracts/RockPaperScissors.sol",
  "compiler": {
    "name": "solc",
    "version": "0.5.0+commit.1d4f565a.Emscripten.clang"
  },
  "schemaVersion": "3.0.1",
  "updatedAt": "2019-02-01T15:17:59.087Z",
  "devdoc": {
    "methods": {}
  },
  "userdoc": {
    "methods": {}
  }
}